:020000040808EA
:1000000000000808F4770808000006000A0005014F
:080010000402E70500000000F6
:04001800D86208089A
:1000200009480A4908B5884205D0094A824202D0E7
:10003000121A05F075FC0748074A0021121A05F04C
:1000400095FC064808BD00BF000000209476080813
:1000500034010020340100205809002058090020F4
:1000600070B504F007F9074B074C1E46E41AA408C4
:100070000025A54204D056F8253098470135F8E709
:1000800070BD00BF4C6E0808846E080801F0BCBA51
:1000900008B501F07DF8BDE8084004F0ADB802F005
:1000A000C5BC02F0CBBC000008B5034A00210C20FF
:1000B00002F082FBFEE700BF092508080078B0FACD
:1000C00080F040097047012303707047014B012203
:1000D0001A7070478801002038B50446006928B1BD
:1000E00085680C2104F033FA2846F8E7204638BD2D
:1000F00008B5044903F08AFC18B1034801F064FD17
:10010000012008BDC06708084401002008B5044963
:1001100003F07CFC18B1034B05221A70012008BDC6
:10012000C06708087401002010B50446024B036044
:1001300001F026FF204610BD1063080810B50446E4
:10014000FFF7F2FF2046382104F001FA204610BDE7
:1001500010B50446024B036001F0FEFC204610BDC2
:10016000F462080810B50446FFF7F2FF204610219C
:1001700004F0EDF9204610BD08B50A4903F046FC2D
:10018000002368B1084A09491360936053615360C2
:10019000074A0B611370074B01201870064B18704B
:1001A00008BD00BFC06708080C02002068020020DC
:1001B00028020020040200206402002008B502F09A
:1001C000ADFB20B1BDE80840002002F0C7BB08BD70
:1001D00008B5002002F0CAFB28B102F09FFB80F0B6
:1001E0000100C0B208BD012008BD00000C4B012277
:1001F000197891B10B490A700B4A52E8001F01317E
:1002000042E800100028F8D1084A52E8001F0131E6
:1002100042E800100028F8D100221A70704700BF91
:10022000FC010020380100207C0100207801002022
:1002300010B50446006808B102F000FC204610BD6D
:100240000368D86820B183888B4201D08068F9E7C1
:10025000704700002DE9F041037D05460F46164624
:100260003BB30121FFF7ECFF50B18389BB4204D1BE
:1002700086731EE08388012BF6D080680028F9D1B0
:100280000D49102004F06EF9044688B14FF01008B3
:100290004246002105F06AFB022363800123A4F893
:1002A0000080A3802B69A781A360A6732C6100E066
:1002B00028752846BDE8F081F46B0808002002F09C
:1002C00043B910B5044639B10139FFF7FAFF0146C9
:1002D000204604F0F3FF10BD4FF07E5010BD37B53F
:1002E0009DF8185004688DF800308DF80450E468CB
:1002F0003C23A04703B030BD10B50B7892B00C463C
:1003000023B9194902A805F06BFB17E0084605F070
:10031000FDF9C82804D0204605F0F8F9C92819D1FC
:10032000124902A805F05CFB03F09BFD104B012273
:100330005862104B1A70104B00221A700F4B00229B
:100340001B780F498DF800200E4802AAFFF7C7FF5F
:1003500012B010BD204605F0D9F90B4A03464021E2
:1003600002A802F08BFBE9E77463080889630808B8
:1003700068020020640200202802002054010020AE
:100380007C6308082C0200209B63080807B50D4910
:1003900003F03CFB98B10C4A0C4B12781B780C49CB
:1003A0008DF800200B480C4AFFF799FF4FF4FA60D4
:1003B00002F07CFB0420012103F0F7FF012003B0D1
:1003C0005DF804FBC06708085D01002054010020AF
:1003D000056608082C020020B863080837B51A49DA
:1003E000044603F013FB0546A0B1184B01241C7111
:1003F000174B1C7002F092FA08B9012022E0154B4D
:1004000000221B7814498DF800201448144AFFF785
:1004100066FFF2E71349204603F0F8FA90B10B4B60
:1004200001241D710A4B1C7002F078FA0028E4D0F8
:10043000084B0D4A1B7808498DF800500748FFF714
:100440004EFF204603B030BDC06708086802002098
:100450006402002054010020426508082C0200209C
:10046000D0630808E1630808E3630808000000009F
:100470002DE9F043CBB00446FFF7A0FEFFF71EFFC7
:1004800047F22F58064600274FF00009FFF716FFE6
:10049000801B61EB0701894508BF804505D3FFF745
:1004A00097FE10B902F022FAF0E7FFF791FE0A2258
:1004B00005A9206805F06EFB00F10C03DBB2182BD8
:1004C00047D845B2284604F0A5FE274B01245861C1
:1004D00003F03EFC254B1C7003F02CFC064603F099
:1004E000C0FC301A04F0ECFA1DA3D3E9002304F099
:1004F00077FC1F4ACDE900010A211E4802F0BEFA2E
:1005000002F00CFA18B31C4E2B461C4A4FF48071B3
:1005100000250AA802F0B2FA33780AAA18498DF821
:1005200000501848FFF7DBFE03F09BFC014606A8CD
:1005300003F054FC069B12490393039A3378114845
:100540008DF80050FFF7CBFE06A803F0EBF920462C
:1005500000E000204BB0BDE8F08300BFAFF30080A7
:10056000000000000020AC4068020020640200206F
:10057000F8630808390100205401002002640808CB
:10058000A46608082C02002000B50B4BC3B0DB6941
:100590000A4A4FF4807102A802F070FA084B002258
:1005A0001B7808498DF80020074802AAFFF797FE3C
:1005B000012043B05DF804FB6802002016640808BF
:1005C00054010020A46608082C02002013B50A225A
:1005D00001A9006805F0DEFA17280AD8074B0124A4
:1005E000D861074B1C7002F099F920B1FFF7CCFFDE
:1005F00002E0002000E0204602B010BD68020020AA
:100600006402002010B5C4B00A2203A9006805F0F6
:10061000C1FA1828034618D80E4A012410620E4A5F
:100620004FF48071147004A80C4A02F027FA02F00B
:1006300075F960B10A4B00221B780A498DF8002039
:10064000094804AAFFF74BFE01E0002000E0204625
:1006500044B010BD68020020640200202A6408082B
:1006600054010020A46608082C020020F0B52B4D90
:100670002B4E2B68C3B0D3F8C420B3F8C8303478FD
:10068000138303F0FFFB8442264C04D003F0FAFBF3
:1006900001233070A361A369224F0133A36103F0EA
:1006A000E0FB214AE060002652E8003F42E800619A
:1006B0000029F9D1226813441C4A236052E8003F04
:1006C00042E800610029F9D1A2681344A360184BE5
:1006D0001B7913B102F022F968B9164B01221A7086
:1006E0002B68D3F8C420B3F8C8305383124B0022D0
:1006F0001A7043B0F0BDBB68104A00933B684FF4DA
:10070000807102A802F0BAF90D4B02AA1B780D49BC
:100710008DF800600C48FFF7E2FDDEE7B401002031
:10072000800100200C0200207C01002078010020C4
:1007300068020020040200203801002041640808FB
:10074000540100206D6608082C02002010B5C8B0C6
:1007500003F087FB4FF46162B0FBF2F302FB13037B
:10076000194C0138C01AA3690790069363694FF4C6
:1007700080710593154B08A81A69049222690392A7
:10078000134A02929B68134A0193A368009323685B
:1007900002F074F9104B002210491B7810488DF8B4
:1007A000002008AAFFF79BFD0E4B01221A7001F0F2
:1007B000B3FE0D4B186003F05BFB0C4B1860236815
:1007C000636048B010BD00BF0C020020680200202A
:1007D0005E0100205E64080854010020D964080806
:1007E0002C0200202802002070010020840100203B
:1007F00030B5174D99B004AC0FCD0FC40FCD0FC459
:1008000095E8030084E8030012490EA802F0BCF941
:100810000EA802F00CFA04460EA802F04FFA0546A4
:100820000EA802F033FA18AB03EB840404F05AF973
:10083000CDE90201284604F055F9CDE90001064A48
:1008400054F8503C4021054802F018F919B030BD69
:100850003063080894020020FC640808BC010020F2
:1008600008B50A2003F0CDFD04F02AF916A3D3E958
:10087000002304F08BF904F0C3FB4FF0665104F041
:100880001DFD04F02FF90022114B03F0CBFF0022D5
:10089000104B04F07BF904F08BFB04F011F90022FB
:1008A0000D4B04F073F900220C4B04F099FA00226E
:1008B0000B4B03F0B9FF04F07BFB0A4B01221861DC
:1008C000094B1A7008BD00BF6666666666660A4018
:1008D0000000E03F000059400000224000001440AA
:1008E000000040400C02002004020020074B1B685F
:1008F000D3F8A820B3F8AC101183D3F8A820B3F82C
:10090000AC305383024B00221A707047B4010020B0
:100910008801002013B50446012101A802F0E1FE80
:1009200001A81CB102F078FF012401E002F044FFAD
:1009300001A802F0E5FE204602B010BD10B520244B
:1009400090B022460021684605F010F822460021AA
:100950000DEB04008DF8054005F008F800210DEBC3
:1009600004008DF8254001F09DFF194B41F2700005
:100970005979009B91B140F22622ADF808204FF43E
:100980000072ADF80A2041F2720243F40073ADF830
:100990000600ADF80C20009300210EE04FF46172C8
:1009A000ADF80820ADF80A2041F2100243F40073BC
:1009B000ADF80600ADF80C200093684601F072FF18
:1009C00004460120FFF7A6FF204610B010BD00BF6F
:1009D0006802002037B51C49044603F017F80546A5
:1009E000B0B11A4B01245C71FFF7A8FF184B1C70C3
:1009F00001F094FF08B9012024E0164B00221B7877
:100A000015498DF800201548154AFFF768FCF2E7F4
:100A10001449204602F0FAFFA0B10C4B01245D718D
:100A20000B4B1C70FFF78AFF01F078FF0028E2D023
:100A3000084B0D4A1B7808498DF800500748FFF70E
:100A40004EFC204603B030BDC06708086802002095
:100A50006402002054010020426508082C02002096
:100A600015650808E16308082C6508082DE9F843B6
:100A70001F4800231A461946406801F0A7FF40F2BC
:100A8000E73601F03BFF1B4D4FF496740027FFF74C
:100A900015FC80464FF00009FFF710FCB0EB080092
:100AA00061EB09018F4208BF864205D301F036FF92
:100AB00010B901F01BFFEFE701F030FF48B101F082
:100AC0002DFF98B10C4A0123D3700C4A1370BDE876
:100AD000F8832B780BB1FFF7C9FD01F01DFD084B22
:100AE000186001F003FF013CE9D0D0E7BDE8F883CE
:100AF00094020020380100206802002064020020D7
:100B00005008002037B52349044602F07FFF28B97A
:100B10002149204602F07AFF002839D01D4920469D
:100B200002F074FF88B101F0F9FE48B11B4B0022BE
:100B30001B781B498DF800201A481B4AFFF7CFFB92
:100B40001A4B01229A711A491CE01349204602F0FF
:100B50005DFFD0B101F0E2FE144C18B9FFF786FF3B
:100B60000123E3700D4B00251B780D49114A8DF8C8
:100B700000500C48FFF7B3FB4FF47A7001F096FF7A
:100B80000D49A5710D4804F02BFF0D4B0120187085
:100B900003B030BDC0670808E163080854010020B5
:100BA000426508082C0200204765080868020020FA
:100BB000566508085B6508086D6508080502002091
:100BC0006402002008B501F0A9FE80F00100C0B267
:100BD00008BD0000F8B501F099FEFFF76FFB43F682
:100BE0009726044600250027FFF768FB001B61EBF2
:100BF00005018F4208BF864205D3FFF7E3FF10B916
:100C000001F074FEF0E7FFF7DDFF09480023194605
:100C10001A46406801F0E2FE064B0022DA70064BED
:100C200001244FF4FA601C7001F040FF2046F8BD2B
:100C300094020020680200206402002038B5084DAC
:100C40000024AC602C606C6003F00BF9054B064A85
:100C50001C6101231370054AE8606C61137038BD94
:100C60000C02002068020020040200206402002020
:100C700030B5134D13492A780E2303FB0212124C90
:100C80008DB02078009203FB0013104A282102A89F
:100C900001F0F4FE2B78237001F040FE48B10C4BBC
:100CA00000221B780B498DF800200B4802AAFFF7A1
:100CB00016FB03F001FA02A902F0E5FD0DB030BD0C
:100CC00074010020000000205C010020736508080A
:100CD00054010020816508082C02002037B501F07E
:100CE00015FE01F019FC43F69725044601F016FEA7
:100CF00040B101F011FC001BA84203D8642001F0B0
:100D0000D5FEF3E70021094B47F23052084601F0C7
:100D10008BFB4FF47A7001F0C9FE054B0A221B6869
:100D20000121684602F062FF03B030BD92650808F9
:100D3000A40100202DE9F0431E4B87B000251E4C76
:100D40001B781E4A1E498DF800501E48FFF7C7FA4F
:100D50002571FFF733FAFFF7B1FA47F22F5806462D
:100D600000274FF00009FFF7A9FA801B61EB07018C
:100D7000894508BF804505D3FFF72AFA10B901F06D
:100D8000B5FDF0E7FFF724FA63791BB90A4B9B68BE
:100D9000462B09DC0C4902A802F00BFE02A8FFF763
:100DA000B1FE02A802F0BEFD084B01221A7007B086
:100DB000BDE8F08354010020680200209F65080808
:100DC000A76508082C020020C067080864020020FC
:100DD00038B503F061F8054603F06FF8044603F0F8
:100DE00065F8231F062B0ED9E31E082B0DD80138FA
:100DF0002D1A01D50B2C02E0072D06DD032C14BFA4
:100E00000020012038BD012038BD002038BD000081
:100E100070B5CAB0044603F024F80A22064605A9B4
:100E2000206804F0B7FEC3B2022B53D840B204F0DE
:100E3000F1F9044602F0A8FF2B4B01229C612B4BD9
:100E400020461A7003F04EFE294ACDE900014FF406
:100E500080710AA801F012FE02F0E2FF38B1FFF73C
:100E6000B7FF10B102F0AAFF01E002F0B1FF02F0FB
:100E700061FF044602F0F5FF201A03F021FE18A3DB
:100E8000D3E9002303F0ACFF1A4ACDE900010A219F
:100E9000194801F0F3FD01F041FDE8B1174D0024C0
:100EA0002B780AAA8DF8004015491648FFF717FA63
:100EB000314606A802F092FF069B8DF8004003938E
:100EC000039A2B780E490F48FFF709FA06A802F09B
:100ED00029FD01E0002000E001204AB070BD00BF04
:100EE000000000000020AC406802002064020020E6
:100EF000B5650808F863080839010020540100208E
:100F0000A46608082C02002030B585B00D460022EA
:100F100004A941F8102D01F067FCA8B9009C0CB1A0
:100F2000236923B9094A00210A2001F045FC002366
:100F300001930C23ADF80430042303930295236935
:100F400001AA01212046984705B030BD09250808AF
:100F500030B50E4D89B001AC0FCD0FC495E8070038
:100F600084E8070069460720FFF7CEFF0028A8BFE6
:100F7000009808AB03EB800050F81C3C044A102199
:100F8000044801F07BFD09B030BD00BF586308087C
:100F90007E6508085E01002037B5194B0022114616
:100FA000586801F00BFD08B1FFF722FCFFF758FC71
:100FB000FFF7CEFF01A90320FFF7A6FFB0B9062176
:100FC0004FF08040FFF77DF90546BDF8040004F0BE
:100FD0001DF929460446284604F068F8014604F045
:100FE00065F80146204604F01DFA00E0054804F0CB
:100FF0002BFB054B01229860044B1A7003B030BDE7
:1010000094020020000080BF6802002064020020DB
:1010100070B586B0FFF72AFDFFF7BEFF01F07EFC3A
:1010200048B1184B00221B7817498DF8002017484B
:10103000174AFFF754F9174C0125A36816491D2BD1
:10104000CCBF00230123002602A8E3712570A670FF
:10105000257102F0AEFC02A8FFF754FD02A802F0D1
:1010600061FC0E4B224663614FF07E53A36118234F
:101070002362294628230A48E66100F033FE06B0C1
:1010800070BD00BF54010020426508082C020020FA
:10109000C665080868020020E16308080000A0C0D7
:1010A0004401002030B5344C85B0FFF775FFA378BC
:1010B000314D012B84BF0023A370E378012B06D9A7
:1010C00001F02CFC10B10123EB7000E0E8702379F3
:1010D000012B82BF284B00221A716379012B82BF3A
:1010E000254B00225A71A379012B09D9234968465F
:1010F00002F05FFC6846FFF705FD684602F012FC4F
:10110000A2681D4B1D2AD4BF01220022DA71236977
:101110006569FF2B82BF184B00221A6118492846C7
:1011200004F06AFA20B91749284604F083FA08B196
:10113000154B6361A5690021284604F05DFA28B9C2
:101140004FF08041284604F075FA10B14FF07E53FD
:10115000A361E3690C2B82BF074B0022DA61236A8B
:101160000C3B0C2B82BF044B18221A62074B012246
:101170001A7005B030BD00BF68020020C0670808C3
:10118000000040C1000040410000A0C064020020F7
:101190002DE9F043A04C8BB02378013B052B00F2E6
:1011A000FF81DFE813F0930106005E0096001B014B
:1011B00060019A4D2B792BB1994B1B78022B01D0F2
:1011C000FFF756FD974B1B780BB1FFF78FFB964B44
:1011D0001B780BB1FFF74AFA944B954E596841B111
:1011E0001A68521A1A6000225A619A615A600123E1
:1011F0003370904F3B783BB12823884A01218E48B9
:1012000000F070FD00233B70337843B11C23874A04
:101210005021894800F066FD854B00221A70AB7999
:101220004BB101F079F9854B1B68C01A844B1B68E0
:10123000984200F2AE8102F01BFE824B1B6898427E
:101240001CBF0523237002F013FE2B6A984280F224
:10125000A38102F00DFE714BDB699842C0F29C81C4
:101260009EE16E4B1A791D462AB16D4B1B78032BFC
:1012700001D0FFF7FDFC192002F056F9724B1B68F4
:10128000D3F8D822B3F8DC321383684B1B680BB158
:101290000523BFE0EB780BB1FFF79CFC0021072092
:1012A00003F083F8FFF722FB02F0DBFD4FF46163EC
:1012B00090FBF3F202FB13001A1A644BB2F5616F54
:1012C0001B68A8BF4FF46162012106A802F08EFCE2
:1012D00066E1524B1A791D462AB1514B1B78042BFB
:1012E00001D0FFF7C5FC504B1B78002B40F0588114
:1012F000EB780BB1FFF76EFC514B4FF47A721A602A
:1013000002F0AFFD0646FFF7F1FA514B1A7D0AB124
:1013100001221A72002205214D48FEF79BFF01228F
:101320001921FEF797FF037D05465BB34FF4616219
:1013300096FBF2F302FB1363D31A9342A8BF134642
:101340004FF47A7704215F43FEF77AFF804608B1B5
:10135000C76017E03F49102003F004F90646002853
:1013600000F01C814FF010094A46414604F0FEFA95
:10137000022373800423A6F80090B3802B69F760E2
:10138000B3602E612B7D1BB1EB6843F00103EB6072
:101390002F4903A802F0C2FB039BB3B19A88012A2C
:1013A00013D19B89192B04D101F0B6F8234B186097
:1013B0000BE0052B09D1284906A802F0FAFA06A885
:1013C000FFF7A0FB06A802F0ADFA039802232370F2
:1013D000002800F0E58001F031FBE1E00F4D2B79B2
:1013E0002BB10F4B1B78052B01D0FFF741FCEB789D
:1013F0000BB9FFF73BFB01F091FA78B302F038FD2F
:10140000EB69984201D1FFF795FCFFF7C5FDFFF7A7
:101410009DF906232370C3E07401002068020020B8
:101420005C01002088010020380100200C0200200F
:10143000040200206402002044010020B8010020C2
:101440005801002084010020B4010020A4010020E4
:101450008C010020F46B0808E163080801F05CF8D7
:10146000514B186030E0514B1B792BB1504B1B781E
:10147000062B01D0FFF7FCFB4E4B1B786BB94E4B94
:101480004E4A1A6001F048F84D4B186002F0F0FC2B
:1014900008B9FFF7D3FB0223BCE701F03DF8494B45
:1014A0001B68C01A4AF6C873984279D901F034F81B
:1014B0003D4B00221860444B44491B7844488DF84A
:1014C0000020444AFEF70BFF0123A3E7374C2379A2
:1014D0002BB1374B1B78012B01D0FFF7C9FB01F073
:1014E0001BF8314B1B6803F5EA433033984257D958
:1014F0002369032B13DC01F011FA48B1324B0022AF
:101500001B7835498DF800203148344AFEF7E7FE54
:101510004FF4FA6001F0CAFA02F0FDFA40E002F07E
:10152000A0FC224B2E4D5B6AC01AB0F5E15F18D9C2
:1015300001F0F4F948B1244B00221B7826498DF8BC
:1015400000202348274AFEF7CAFE4FF4FA6001F054
:10155000ADFA0023012104202361297002F025FF48
:101560001EE001F0DBF948B1174B00221B781A4945
:101570008DF8002016481C4AFEF7B1FE4FF4FA60C1
:1015800001F094FA0023236101232B70FFF7A6FBDF
:1015900006E0042323704EE603233BE72875F1E6BB
:1015A0000BB0BDE8F08300BF0002002068020020FD
:1015B0005C0100202802002058010020905F0100FB
:1015C000B80100207001002054010020DE650808E9
:1015D0002C0200209E6508080B660808F7650808BD
:1015E00064020020116608082B6608080023022206
:1015F00001F06CB90023042201F068B902460148E9
:1016000001F016BC052E08082DE9F0410021ACB010
:10161000112002F0B9FE0021052002F0B5FE924C27
:101620000121072002F0B0FE0121062002F0ACFEED
:10163000236801211A6FB3F874300420538302F039
:10164000A3FE0321192002F09FFE01211A2002F0BF
:101650009BFE23680121D3F8D822B3F8DC321C208A
:10166000538302F091FE23680025D3F81023B3F8CA
:10167000143301211383072002F097FEFFF736F998
:101680004FF0FF33012279490095112001F024FF2A
:1016900004A801F04BF92B467D220CA904A802F006
:1016A000C7F92B462A467249019500950CA801F00E
:1016B0004DF970497048FFF799FF70497048FFF77E
:1016C00095FF70497048FFF795FF70497048FFF724
:1016D0008DFF70497048FFF789FF70497048FFF728
:1016E00089FF70497048FFF781FF70497048FFF724
:1016F00081FF70497048FFF779FF70497048FFF724
:1017000075FF70497048FFF771FF70497048FFF727
:1017100071FF70497048FFF76DFF70497048FFF71F
:101720006DFF70497048FFF769FF70497048FFF717
:1017300065FF70497048FFF761FF70497048FFF717
:101740005DFF70497048FFF759FF70497048FFF717
:1017500055FF70497048FFF751FF70497048FFF717
:101760004DFF70497048FFF749FF70497048FFF717
:1017700045FF704800F01EFA01230DF10F022946C3
:101780006C4800F059FA9DF80F302746022B6A4C3E
:101790000BD0684800F018FA0423684A29466548C7
:1017A00000F0A0FAFFF734FC05E0282322460121CF
:1017B000604800F041FA00262CADFFF773FC45F8B5
:1017C000906D32463146284600F086FE089B142B69
:1017D00000F01A81324631462846089600F07CFE19
:1017E000089B8C2B00F01081A3790BB1544900E0C9
:1017F00054492E4804F0F4F8A06902F0C5FAFFF746
:10180000E7FA10B102F0DAFA01E002F0E1FA6069F9
:1018100002F09EFA02F08EFA064602F022FB301A1F
:1018200003F04EF90EA3D3E9002303F0D9FA114EC9
:10183000CDE90001444A0A21244801F01FF91C2384
:10184000324650213B4800F0F7F93368DFF8FC805E
:10185000002B7DD0F06802F049FA7BE0AFF3008006
:10186000000000000020AC40B4010020CD000808BA
:10187000F90208080C0200204A6608081402002039
:1018800056660808BC01002061660808780200203E
:10189000686608081C0200207366080870000020B3
:1018A0007F6608087002002087660808050200208D
:1018B0009266080884020020366708088802002023
:1018C0009F66080820020020A96608083901002048
:1018D000B06608085E010020BB660808F100080831
:1018E000CA66080879010808D46608088D03080844
:1018F000E06608080D010808EA660808050B0808F4
:10190000F2660808D5090808FF660808DD0308081C
:101910000A6708087104080817670808110E080804
:1019200024670808CD050808326708080506080876
:101930003F6708084401002068020020C4670808C7
:10194000566508086D650808F863080884010020DA
:1019500002F08EFAC8F80000FEF7F0FF052002F052
:101960003DFD08B9FFF754FB02F096FA8046F06897
:1019700002F0C4F9804510D0FFF760F9637963B1D4
:10198000264B9B794BB92649284602F012F8284687
:10199000FFF7B8F8284601F0C5FF02F069FA236A9C
:1019A0001E4D98421BDA02F063FAEB69984216DB8F
:1019B0001C4A002313601C4A1C4913601920009321
:1019C00001224FF0FF3301F087FDEB7813B100F0F7
:1019D000A5FF00B3FFF7E0FA154A164B1A603B6803
:1019E000D3F81023B3F814335383134B1A780AB97E
:1019F00002221A700021072002F0D7FC04A801F08F
:101A000091FF2CB0BDE8F0812369012201332361ED
:101A10000A4B1A70E8E6FFF729F8DBE768020020B6
:101A2000C06708087C01002078010020ED0108084B
:101A3000905F010058010020740100206402002022
:101A4000354B2DE9F04100241C60344B01271F70F9
:101A5000334B08221A7000F07FFD324B324D186074
:101A600002F034FC2346224641F2591102F036FCC2
:101A700002F02CFC224623460F2102F037FC4FF6E1
:101A8000FF732A4E6B812C60AC80AC712C810220DC
:101A900000F0BCFE32462649284602F053FD254D93
:101AA0002146384600F0CAFE3946042000F004FD05
:101AB0004FF01008281D42462146286003F056FFCB
:101AC000022332461C492846EB802F75A5F8048076
:101AD00002F038FD02F0D2FC184D234601464FF4C7
:101AE0000052284600F05CF8154C164B3246164959
:101AF00028462B6002F026FD4FF400621349204671
:101B000000F06AFB124B324623602046BDE8F041EC
:101B1000104902F017BD00BFA401002054010020AD
:101B20005D010020B4010020A80100203401002044
:101B3000310208088C010020D90008084401002067
:101B40002C020020F46208085101080800400240FD
:101B50001063080829010808704710B504461021D1
:101B600002F0F5FC204610BD0368C9B29B68184717
:101B70000EB400B58CB00DAA52F8041B20238DE8DA
:101B80000600039204930168002304AA1E20059313
:101B900000F022FE0CB05DF804EB03B070470000CB
:101BA00030B5034D416005608260C36030BD00BF49
:101BB0004C680808406801F039BC10B5044600685C
:101BC00001F080FC204610BD2DE9F0410746406839
:101BD0008AB0019001F06DFC1E22002102A8BE68AF
:101BE00003F0C4FE0025DEB1B0463B681E2E28BFC0
:101BF0004FF01E08DC6802AA434629463846A04733
:101C0000044648B92A460A490A48FFF7B1FF01A825
:101C1000FFF7D3FF204607E0C8EB06064544E2E79E
:101C200001A8FFF7CAFF01200AB0BDE8F08100BF9C
:101C3000C8670808800300202DE9F3470446406880
:101C40000E4617469846019001F033FCB8F1000F9C
:101C500001D101243FE0E168606841F0500101F0EA
:101C60001DFC310A6068FFF77FFF31466068FFF7AF
:101C70007BFF0021606801F014FC08B100242AE019
:101C8000C146E168B8F1200F28BF4FF0200941F0AC
:101C9000500101234A46C9B2606801F0E9FB02F035
:101CA000EDFB03681B6998474845E7DB3D46C7EBFA
:101CB000060A02F0E3FB03685B69984705F8010B2D
:101CC000EA1BC5EB0803914505EB0A063B44F0D837
:101CD00098462F46BAE701A8FFF76FFF204602B0EB
:101CE000BDE8F0872DE9F347044640680D4690466D
:101CF0001F46019001F0DDFB4FB3E168606841F0E1
:101D0000500101F0CBFB290A6068FFF72DFF29463F
:101D10006068FFF729FF464608F11E09C8EB050A6F
:101D2000606816F8011B036806EB0A059B68984774
:101D3000B145B04607F1FF3701D0002FF0D10121A6
:101D4000606801F0AEFB0028D6D0002400E001243A
:101D500001A8FFF732FF204602B0BDE8F0872DE969
:101D6000F0430E461546804640688BB01C460190F5
:101D700001F09FFBAE4223D2264425440CB9012436
:101D80003FE027461E2C28BF1E27D8F80030F61B40
:101D9000D3F8089002AA3B4631464046ED1BC8479F
:101DA00008B900242DE0D8F8003002AAD3F80C902E
:101DB00029463B464046C8470028F2D0E41BDDE7F1
:101DC000DDD9002CDBD027461E2CD8F8003028BFE8
:101DD0001E27D3F8089002AA3B4631464046C84722
:101DE0000028DED0D8F8003002AAD3F80C9029469B
:101DF0003B464046C8470028D3D03E443D44E41B00
:101E0000DFE701A8FFF7D9FE20460BB0BDE8F0835D
:101E100000F0A2BB4268036812F0010F4FEA6200B3
:101E200018BF0A58084418BFD358184710B50123E3
:101E30000374836804460BB1C06806E0006828B1EB
:101E400083680BB902F09FFBC36898470123637452
:101E50000020BDE8104000F027BB012A034601D155
:101E6000016005E0022A03D110B103C983E8030031
:101E70000020704710B58368044613B10322014661
:101E80009847204610BD00000123F7B580F829309F
:101E90000546083000F0E0FA0420FEF700F9044699
:101EA000002835D01C49142002F05CFB30B100231F
:101EB0000374036043608360C36043742060B0B107
:101EC000164B0222836023681549DD6020684FF4B9
:101ED00000638DE80900134B043000F0ADFA30B90F
:101EE00023681B7CA3B9012000F006FBF8E72668F5
:101EF0000023236066B1376837B13846FFF7BAFF71
:101F00001021384602F023FB1421304602F01FFB5B
:101F10006C6003B0F0BD00BFF46B08083B210808FB
:101F2000886808082D1E080847F23051C1600A4928
:101F30000A4A01610A490260C1610A4900224260FD
:101F4000426181610262426280F8282080F8292083
:101F500080F82A20704700BF952208084C690808BD
:101F6000151E08085B1E080810B50446034B40F810
:101F7000103BFFF77FFF204610BD00BF4C690808EB
:101F800010B50446024B0360FFF7EEFF204610BD7C
:101F90006868080810B50446FFF7F2FF20463821AC
:101FA00002F0D5FA204610BD806800F05DBA806866
:101FB00000F062BA10B504460068FFF7F8FF20464B
:101FC00010BD13B504460190FFF7EEFFE36ADC880D
:101FD000A4B20CB103F1080401A8FFF7EBFF2046FF
:101FE00002B010BD13B504460190FFF7DDFF94F871
:101FF00028301BB9E26A0124D38000E0002401A844
:10200000FFF7D8FF204602B010BD37B5054602AC39
:1020100044F8040DFFF7C8FFEB6A2046DD88FFF7A0
:10202000C9FF284603B030BD2DE9F0479A4690F825
:10203000293086B00446884616469DF838909DF8AB
:102040003C7013B903689B689847314B4046002E9B
:1020500008BF1E4603F0E7FC0546304603F0E3FCEC
:10206000284400F10A05AB071CBF25F00305043521
:10207000334603950297CDF80490CDF800A0424670
:1020800024492548FFF774FD238E083B9D420FD954
:10209000002438E0CB88012B31D005A8FFF78AFF58
:1020A000236894F828109B69204698470028EFD0B1
:1020B00020460594FFF778FFE16A238E626B0B449C
:1020C0009B1A9D42E6D847EA0907C2F800A017719B
:1020D000676B41460837384603F082FC384603F008
:1020E000A2FC01303146384403F07AFC606BE26AAE
:1020F00028446063D38801240133D38000E00024A6
:1021000005A8FFF757FF204606B0BDE8F08700BFDF
:102110009E6508089A68080890020020044608B5E1
:1021200000F11005A3690BB902F02DFAE36921460D
:102130002846984700F088F9F4E708B5FFF7EEFF66
:1021400038B501F108040546204603F06CFC013067
:102150000444204603F067FCEB6A01302044C31AB4
:1021600013F003031CBFC3F10403C01838BD2DE9ED
:10217000F341054688460190FFF716FFEE6A06F127
:102180000807F488B8F1000F07D0012C1CD9394694
:102190002846FFF7D5FF074600E0B4B13946284688
:1021A000FFF7CEFF2A8E01463244121AA0EB070435
:1021B00002D0384603F0BFFB6B6B1B1B6B63F388CD
:1021C0000124013BF38000E0002401A8FFF7F2FEA8
:1021D000204602B0BDE8F0812DE9F0470D460446E7
:1021E00090462F46FFF7A0FE154B00262360E562C0
:1021F000A4F830806663134B57F8082B99469A422F
:1022000014D1AB889BB2984510D105EB080A6763DF
:10221000EB88B2B29BB29A420FD2616B2046FFF7B5
:102220008FFF8245606306F10106F1D20023C5F8F5
:102230000090A5F80480EB8067632046BDE8F08736
:102240006868080861AB9CD110B5044691E80C00A1
:1022500086B00292A268039302AB93E803008DE874
:10226000030094E8030083E803009DE80300049260
:10227000064A84E80300A260E26818460592044A10
:10228000E260FFF7F7FD204606B010BD5B1E0808B0
:10229000151E080807B5054B69460093103000234A
:1022A0000193FFF7D1FF03B05DF804FBDD220808BE
:1022B00013B5044600F030F9636AC01AE368984227
:1022C00008D3054B6946009304F1100000230193E5
:1022D000FFF7BAFF02B010BDDD2208082DE9F0417A
:1022E00090F82A3086B00446002B73D100F016FB1C
:1022F00000286FD000F010F9636AC01A40F2F13381
:10230000984267D9236820465B69984705460028AC
:1023100060D005F10806012384F82830304603F028
:1023200082FB95F804800130CDF804802B683718C3
:10233000009332463B4629492948FFF719FC2B6890
:102340003A468DF80080314602A800F0AFFE029DAB
:102350006B781BB9012000F0A9FBF8E7002000F022
:1023600075FA20B16B7813B900F0C0FAFAE72B7850
:10237000012B09D11B491A48FFF7FAFB23680021FA
:102380009B69204698470DE017491548E268FFF71A
:10239000EFFB164B04A9049304F1100000230593EE
:1023A000FFF752FF002384F8283000F0B5F8606290
:1023B000039C7CB16368013B63605BB92368204682
:1023C0009B689847A368013BA3601BB9236820461C
:1023D000DB68984706B0BDE8F08100BFDB680808FD
:1023E00090020020FC68080813690808B122080858
:1023F00008B500F0B1F8024A024B1A6008BD00BFF0
:102400003A6908089002002008B5024B1B68DB6B94
:10241000019308BD2000060808B5024B1B685B6CE1
:10242000019308BD2000060808B5024B1B689B6C91
:10243000019308BD2000060808B5024B1B685B68C5
:10244000019308BDD001040808B5024B1B68DB6886
:10245000019308BDD001040808B5024B1B681B6B33
:10246000019308BDD001040808B5024B1B689B6BA3
:10247000019308BDD001040808B5024B1B681B6C12
:10248000019308BDD001040808B5024B1B685B6CC2
:10249000019308BDD001040808B5024B1B689B6C72
:1024A000019308BDD001040808B5024B1B68DB6E20
:1024B000019308BDD001040808B5024B1B685B6E90
:1024C000019308BDB801040808B5024B1B689B6E58
:1024D000019308BDB801040808B5024B1B68DB6E08
:1024E000019308BDB801040808B5024B1B685B687E
:1024F000019308BD9C01040808B5024B1B689B684A
:10250000019308BD9C01040808B5024B1B68DB68F9
:10251000019308BD9C01040808B5024B1B685B6968
:10252000019308BD9C01040808B5024B1B68DB69D8
:10253000019308BD9C01040808B5024B1B689B6D04
:10254000019308BD9C01040808B5024B1B68DB6DB4
:10255000019308BD9C01040808B5024B1B681B6869
:10256000019308BDB001040808B5024B1B685B6805
:10257000019308BDB001040808B5024B1B689B68B5
:10258000019308BDB001040808B5024B1B68DB6865
:10259000019308BDB001040808B5024B1B681B6914
:1025A000019308BDB001040808B5024B1B685B69C4
:1025B000019308BDB001040808B5024B1B689B6974
:1025C000019308BDB001040808B5024B1B68DB6924
:1025D000019308BDB001040808B5024B1B681B6BD2
:1025E000019308BDB001040808B5024B1B68DB6805
:1025F000019308BDAC01040808B5024B1B689B6938
:10260000019308BDAC01040808B5024B1B68DB69E7
:10261000019308BDAC01040808B5024B1B681B6A96
:10262000019308BDAC01040808B5024B1B685B6A46
:10263000019308BDAC01040808B5024B1B689B6AF6
:10264000019308BDAC01040808B5024B1B68DB6AA6
:10265000019308BDAC01040808B5024B1B681B6B55
:10266000019308BDAC01040808B5024B1B685B6B05
:10267000019308BDAC01040808B5024B1B681B6C34
:10268000019308BDAC01040808B5024B1B689B6CA4
:10269000019308BDAC01040808B5024B1B68DB6C54
:1026A000019308BDAC01040808B5024B1B681B6D03
:1026B000019308BDAC01040808B5024B1B68DB6937
:1026C000019308BDB401040808B5024B1B681B6ADE
:1026D000019308BDB401040808B5024B1B689B694F
:1026E000019308BDC401040808B5024B1B685B6A6E
:1026F000019308BDC401040808B5024B1B689B6A1E
:10270000019308BDC401040808B5024B1B68DB6ACD
:10271000019308BDC401040808B5024B1B681B6B7C
:10272000019308BDC401040808B5024B1B685B6B2C
:10273000019308BDC401040808B5024B1B689B6BDC
:10274000019308BDC401040808B5024B1B681B6C4B
:10275000019308BDC401040808B5024B1B681B683F
:10276000019308BD1C00060808B5024B1B681B69D5
:10277000019308BD1C00060808B5024B1B685B6985
:10278000019308BD1C00060808B5024B1B689B6935
:10279000019308BD1C00060808B5024B1B68DB69E5
:1027A000019308BD1C00060808B5024B1B681B6A94
:1027B000019308BD1C00060808B5024B1B685B6B43
:1027C000019308BDA001020808B5024B1B681B6DF0
:1027D000019308BDA001020808B5024B1B685B6DA0
:1027E000019308BDA001020808B5034B1B68D3F88C
:1027F0009830019308BD0000A001020808B5024B03
:102800001B681B68019308BDA401040808B5024BAE
:102810001B685B68019308BDA401040808B5024B5E
:102820001B685B69019308BDA401040808B5024B4D
:102830001B689B69019308BDA401040808B5024BFD
:102840001B68DB6A019308BDA401040808B5024BAC
:102850001B68DB6C019308BDA401040808B5024B9A
:102860001B685B6D019308BDA401040808B5024B09
:102870001B689B6D019308BDA401040808B5034BB8
:102880001B68D3F89030019308BD0000A401040830
:1028900008B5034B1B68D3F89C30019308BD0000BA
:1028A000A401040808B5034B1B68D3F8B0300193AA
:1028B00008BD0000A401040808B5034B1B68D3F849
:1028C000B430019308BD0000A401040808B5024B10
:1028D0001B681B68019308BDCC01040808B5024BB6
:1028E0001B685B68019308BDCC01040808B5024B66
:1028F0001B689B68019308BDCC01040808B5024B16
:102900001B68DB68019308BDCC01040808B5024BC5
:102910001B681B69019308BDCC01040808B5024B74
:102920001B685B69019308BDCC01040808B5024B24
:102930001B68DB69019308BDCC01040808B5024B94
:102940001B681B6A019308BDCC01040808B5024B43
:102950001B685B6A019308BDCC01040808B5024BF3
:102960001B68DB6A019308BDCC01040808B5024B63
:102970001B681B6B019308BDCC01040808B5024B12
:102980001B68DB6B019308BDCC01040808B5024B42
:102990001B685B68019308BDC801040808B5024BB9
:1029A0001B689B68019308BDC801040808B5024B69
:1029B0001B68DB68019308BDC801040808B5024B19
:1029C0001B681B69019308BDC801040808B5024BC8
:1029D0001B685B69019308BDC801040808B5024B78
:1029E0001B689B69019308BDC801040808B5024B28
:1029F0001B68DB69019308BDC801040808B5024BD8
:102A00001B681B6A019308BDC801040808B5024B86
:102A10001B681B6B019308BDC801040808B5024B75
:102A20001B685B6B019308BDC801040808B5024B25
:102A30001B681B68019308BDA001040808B5024B80
:102A40001B685B68019308BDA001040808B5024B30
:102A50001B689B68019308BDA001040808B5024BE0
:102A60001B681B69019308BDA001040808B5024B4F
:102A70001B689B69019308BDA001040808B5024BBF
:102A80001B68DB69019308BDA001040808B5024B6F
:102A90001B68DB6A019308BDA001040808B5024B5E
:102AA0001B681B6B019308BDA00104080021FFF700
:102AB000B5BE10B5836804460BB901F064FDC36868
:102AC0009847A3681BB10322214620469847204619
:102AD000BDE81040102101F03ABD002211464068C7
:102AE000FFF76CBF2DE9FF41002604AC05461046F8
:102AF0008846174644F8046D02F095FF009681B2AF
:102B0000D8F8043022463846FFF77EFC20B1314623
:102B1000284600F055FD03E02146284600F048FD18
:102B2000284604B0BDE8F081002211464068FFF756
:102B300065BF002211464068FFF770BF0022406861
:102B4000FFF764BF002281F001014068FFF74EBF2C
:102B500000231A4619464068FFF740BF00231A4673
:102B600019464068FFF732BF002211464068FFF760
:102B700015BF002202214068FFF718BF00231A4644
:102B80004068FFF703BF0000F0B50F461A4B002561
:102B900003601826283389B043608560C5603246DB
:102BA00029460446103002F0E1FE2A46294678689C
:102BB000FFF704FF08B9A0601BE02946324602A8CF
:102BC0000095019502F0D2FE02A96846ADF80860B2
:102BD000FFF722FC10B10123A3600AE0009B019AD9
:102BE000A360E2600BB90223A36002A9204600F0B3
:102BF0007DF8204609B0F0BDA869080838B5084C32
:102C000028252A460021204602F0B0FE4FF0FF336F
:102C10006360044B04225A60034A25801A6038BD61
:102C20009C02002094020020746908087047007D0F
:102C30007047000008B5037D1BB18069B0F1004FFB
:102C400001D1002008BD02F0E5FA024902F0EAFBDA
:102C500008BD00BF0000C84208B5037D1BB1006A73
:102C6000B0F1004F01D1002008BD02F0D3FA0249B3
:102C700002F0D8FB08BD00BF0000C84210B50446F2
:102C8000282101F064FC204610BD000008B5037D3A
:102C90005BB1406A002808DB02F0BCFA044902F08C
:102CA000C1FB044902F00AFB08BD034808BD00BF90
:102CB00000FF7F470000C842000080BF08B5037DC9
:102CC0005BB1C069002808DB02F0A4FA044902F0F5
:102CD000A9FB044902F0F2FA08BD034808BD00BF91
:102CE00000FF7F470000C842000080BF30B50D469E
:102CF00000F110040FCD0FC495E8030084E8030031
:102D0000012030BD2DE9F04107460C4615462AB991
:102D1000BDE8F0410368C9B29B681847002907DA8B
:102D20000A2A05D12D2100F09FFD6142064601E0EF
:102D300021460026EAB2384600F0AFFD3044BDE837
:102D4000F08170B50D4606460A2281682846FFF7D5
:102D5000D9FF2C210446284600F086FD0A220444AF
:102D6000F1682846FFF7CEFF204470BDA0F10400B3
:102D7000FFF7E7BF70470020704710B504461021E9
:102D800001F0E5FB204610BD08B508B1FFF7F5FFDF
:102D900008BD002202604FF69C72828010B5B1F926
:102DA000044084808A8002680C6804600A6010BD58
:102DB00010B504460068FFF741FE204610BD38B547
:102DC000C468F4B12378022B03D104F10C00FFF79F
:102DD000EFFF656835B12846FFF74CF8102128460B
:102DE00001F0B5FBA56835B12846FFF743F810217F
:102DF000284601F0ACFB2046BDE83840142101F024
:102E0000A6BB38BD10B588B00446684600F0D1FDB9
:102E1000694604A800F0EFFD04A8A047044604A8F2
:102E200000F080FD684600F07DFD204608B010BD32
:102E3000F0B507460E46154685B0102422460021FF
:102E4000684602F093FD002269461046ADF8004046
:102E5000029703960195FFF741FD05B0F0BD38B527
:102E6000046805467CB16368013B63605BB9236815
:102E700020469B689847A368013BA3601BB9236861
:102E80002046DB689847284638BD13B5044691E8CC
:102E9000050000234B600B602060626001A8019375
:102EA0000093FFF7DCFF204602B010BD0B68036003
:102EB00013B15A6801325A607047F7B50C4606469E
:102EC0000F4654F8043B02AD45F8083D214601A8E1
:102ED000FFF7ECFF29463046FFF7D7FF01A8FFF7C1
:102EE000BEFF2046FFF7BBFF3846082101F02FFB4D
:102EF000304603B0F0BD13B50B46044603C88DE859
:102F0000030093E8030084E803009DE8030083E8DE
:102F1000030002B010BD000038B500230446036072
:102F200010200D46FDF7BBF828B1012343608360F4
:102F3000024BC56003602060204638BDDC6908088C
:102F4000826810B50AB901F01EFBC368BDE81040E5
:102F5000184708B5006800F11001FFF7F1FF08BD40
:102F6000826810B50AB901F00EFBC368BDE81040D5
:102F7000184708B5006800F11001FFF7F1FF08BD20
:102F800038B5002383608B6804460D462BB10222BE
:102F90009847EB68E360AB68A360204638BD00004B
:102FA000F0B589B004686846FFF7F3FE4FF00202FF
:102FB00000238DF80830D4E84F3F002B03D1C4E83C
:102FC000412F0029F7D102D08DF8083063E014F1C9
:102FD0000C0503D069462846FFF7DBFEBFF35F8F81
:102FE00001236370BFF35F8F04F10803002053E8EF
:102FF000006F43E80002002AF9D1BFF35F8F002E73
:1030000049D0FFF723FC20B129463046FFF798FF4F
:103010003AE0314602A8FFF7B3FFE068B4F9105078
:1030200008B102F0E5FC06901020ADF81C50FDF749
:1030300036F80546E8B1002787601820FDF72FF81D
:10304000044688B10146876002A8FFF754FF049B3D
:10305000A268A360059B0492E26806A9E36004F1FC
:1030600010000592FFF795FE0D4B2C60EB600D4BA9
:10307000AB6006A8FFF79CFE02A8FEF7FBFE00224D
:1030800029460948FFF7EAFB3046FEF7F3FE102118
:10309000304601F05CFA6846FFF78AFE09B0F0BDE1
:1030A000532F0808C9310808B32A08082DE9F04F42
:1030B0008BB006460F46904699469DF850A0FFF704
:1030C0002DFC07AD834630BB4FF62E73059005A946
:1030D0002846ADF81830FFF75CFE1420FCF7DFFF40
:1030E000044658B10223037001234370C0F804B0B2
:1030F000C0F808B029460C30FFF74BFE3046214699
:1031000040F8044BFFF708FF2846FFF751FE05A8DB
:10311000FFF74EFE52E000240C2314206C60AC60DC
:103120000793FCF7BCFF014618B10470447044607B
:10313000846004A80391FFF7EFFE224B0820089358
:10314000FCF7ADFF044628B1039B04A940F8043BFB
:10315000FFF7ACFE00955FFA8AF34A4641463846CF
:103160000994FFF7EBFB20B9039B5B7803F0FF02A8
:1031700083B1039B04A906A80593FFF797FE05A951
:103180003046FFF782FE06A8FFF769FE04A8FFF7A6
:1031900066FE13E04FF69C7305A903A80592ADF8EF
:1031A0001830FFF7FDFE05A8FFF702FE05A80999F4
:1031B000FFF783FE06A8FFF752FEDAE730460BB0B2
:1031C000BDE8F08F39330808022AF8B5044606D066
:1031D000032A17D0012A22D10B6803601FE01820B0
:1031E0000E68FCF75CFF054650B13146FFF7C8FE9C
:1031F0003069B6F9147008B102F0FAFB2861AF82A9
:1032000025600CE0046854B104F11000FFF7D0FD14
:103210002046FEF72FFE1821204601F098F90020E5
:10322000F8BD38B5002383608B6804460D462BB18A
:1032300002229847EB68E360AB68A360204638BD84
:10324000022A70B5044606D0032A11D0012A18D1EB
:103250000B68036015E014200E68FCF720FF05469C
:1032600020B13146FFF7DDFF337C2B74256008E089
:10327000046834B12046FEF7FDFD1421204601F01C
:1032800066F9002070BD0000F0B50C46BFF35F8FFB
:1032900087B0002350E8006F40E80032002AF9D1DF
:1032A000BFF35F8F002E3FD01846FFF7CFFA0746D7
:1032B00020B121463046FFF753FE2EE0314601A8EB
:1032C000FFF7AFFF237810208DF81430FCF7E7FEEE
:1032D0000546D0B187601420FCF7E1FE044678B1C2
:1032E0008760014601A8FFF706FE039BA268A36062
:1032F000049B0392E268E3609DF814300492237407
:103300000A4B2C60EB600A4BAB6001A8FEF7B2FDE4
:10331000002229460748FFF7A1FA3046FEF7AAFD2A
:103320001021304601F013F907B0F0BD732F0808E3
:1033300041320808B32A080830B5044685B00D4666
:1033400068461146FFF7B9FD7CB124B228460DB19D
:1033500002F04EFB029002A96846ADF80C40FFF760
:103360001FFE02A8FFF724FD1DE04FF001020098A8
:103370008DF80840D0E84F3FA34203D1C0E8412F69
:103380000029F7D102D08DF808300CE010F10C01C3
:103390004FF0010318BF0373BFF35F8F043000F8D1
:1033A000033CFFF771FF01A8FFF759FD05B030BDE1
:1033B0007047F8B5064615460C468F18BC4206D035
:1033C000336814F8011B9B6830469847F6E7284697
:1033D000F8BD0022007CFFF71FB90021007CFFF739
:1033E00023B90021007CFFF727B90021007CFFF7FB
:1033F0002BB90021007CFFF72FB910B5044614212A
:1034000001F0A5F8204610BD10B504460023636006
:103410004FF47A73A360044B21740846236011466D
:10342000FFF72AF9204610BDF869080800231A465C
:103430001946007CFFF7D8B870B50C46064686B032
:1034400014252A46002101A802F090FA23780022D0
:103450008DF80830636801A90393E368307C049316
:10346000237AADF804500593FFF71EF906B070BD3E
:103470001FB500338DF800104FF06401039118BFA1
:103480000123694601928DF80830FFF7D5FF05B09A
:103490005DF804FB0022007CFFF7AEB8C9B2FFF76D
:1034A000F9BF0022007CFFF7AFB80021007CFFF7D6
:1034B000DBB808B50021007CFFF7E6F8B0FA80F031
:1034C000400908BD08B50021007CFFF7E5F8B0FA17
:1034D00080F0400908BD0047F0B51C4685B00E4697
:1034E00017460546FFF770F8002084424FF00403AA
:1034F00003908DF80C30B4BF03469DF82830324657
:10350000A4BF8DF80E3003AB009306493B46284616
:10351000A8BF8DF80D40FFF74FF8B0FA80F04009D2
:1035200005B0F0BDD7340808F8B50646FFF74CF8EB
:10353000074668B9084D55F826405CB12046FEF7AD
:1035400099FC1021204601F002F845F8267001E0B0
:103550000020F8BD0120F8BDC4020020704710B55E
:103560000446082100F0F3FF204610BDF8B50F46D1
:1035700000F10806051D002416F8011D0A22384630
:1035800000F08BF9AE42044407D0002CF4D02E2179
:10359000384600F069F90444EEE72046F8BD000023
:1035A000024A026000224260704700BF206A080899
:1035B000024A02600A684260704700BF206A080839
:1035C000014A416002607047206A080810B59DF802
:1035D000084044EA032343EA024242EA01614160AF
:1035E00010BD000037B5044D05609DF818500095DA
:1035F000FFF7ECFF03B030BD206A0808014A024B18
:103600001A607047A26A08088003002000231A4647
:103610004068FFF7BBB9002202214068FFF7C6B936
:10362000002211464068FFF7B9B9002211464068F0
:10363000FFF7C4B900231A4619464068FFF7C6B918
:1036400000231A4619464068FFF7C8B9002281F0E6
:1036500001014068FFF7CAB900224068FFF7D6B9F8
:10366000002211464068FFF7D9B900221146406890
:10367000FFF7C4B9F0B5174687B0054604A8FFF7B1
:103680008FFF002606AC384644F80C6D02F0CBF9EB
:103690000A4B009681B25B6822463846FEF7B4FEBC
:1036A00020B131462846FFF78BFF03E0214628462C
:1036B000FFF77EFF284607B0F0BD00BF9402002050
:1036C000024B034A1A6000225A60704784030020AC
:1036D000106B080808B500F0F7FEBDE80840FFF7DA
:1036E000E8BE10B50446017009B1FFF7F3FF2046AC
:1036F00010BD08B500F0E8FEBDE80840FFF7E2BEE7
:1037000010B5037804460BB1FFF7F3FF204610BD58
:1037100010B504460068FFF7ECFF204610BD37B532
:1037200002AC0D4644F8040DFFF7D4FF00F0CCFEC8
:103730006B21FFF7B3FE00F0C7FE036829469B68C4
:10374000984700F0C1FE0121FFF7ABFE00F0BCFE80
:1037500001231A466B21FFF78BFE00F0B5FE0368CC
:103760005B69984705462046FFF7D2FFE8B203B0F1
:1037700030BD73B502AC15460E4644F8040DFFF794
:10378000A9FF00F0A1FE6B21FFF788FE00F09CFE70
:10379000036831469B68984700F096FE0368294607
:1037A0009B68984700F090FE0121FFF77AFE2046C3
:1037B000FFF7AEFF02B070BD37B5054602AC44F866
:1037C000040DFFF787FF01212846FFF7A8FF01211D
:1037D00000F0CF022846FFF7CCFF2046FFF798FF06
:1037E000012003B030BD37B5054602AC44F8040DE6
:1037F000FFF770FF01212846FFF791FF00F0CF028D
:1038000042F0100201212846FFF7B3FF2046FFF7E0
:103810007FFF012003B030BDFFF7E5BFF8B50646D6
:103820000D468F180024BD420CD0336815F8011BDB
:103830009B6830469847002801DB0444F3E7002CDE
:1038400008BF04462046F8BD70B505460C4608463C
:1038500049B102F0E8F82B68024621462846BDE847
:103860007040DB68184770BD03689B68184738B51F
:103870000D210546FFF7F8FF0A2104462846FFF709
:10388000F3FF204438BD38B50546FFF7DDFF044699
:103890002846FFF7ECFF204438BD012A98BF0A22D2
:1038A00030B50B468BB000218DF824100DF12304A8
:1038B000B3FBF2F505FB1233DBB2092B94BF3033B7
:1038C0003733DBB2214604F801392B46002DEFD106
:1038D000FFF7BAFF0BB030BD10B50446FEF7CAFAC9
:1038E000204610BD034800238360034A034900F0CB
:1038F00029BE00BF8C03002034010020D9380808FD
:1039000070B504460E46002540F8085FFEF7BCFD82
:1039100030462670FEF7D0FE6560204670BD007808
:10392000FEF7D2BE10B504460068FFF787F82046C0
:1039300010BD10B50446006808B1FFF77FF80023FA
:103940002360A360636010BD38B504460D4600686F
:103950000131FFF77BF810B184E82100012038BD68
:1039600010B50368044613B143688B4207D2204662
:10397000FFF7EAFF20B1A3680BB92268137001209A
:1039800010BD70B50E46114604461546FFF7E8FF18
:1039900018B92046FFF7CDFF09E02A463146A56059
:1039A000206801F0BDFF2268A3680021D1542046A1
:1039B00070BD38B500230446036043608360037321
:1039C0000D4639B1084602F02EF829460246204637
:1039D000FFF7D7FF204638BD884210B50B46044696
:1039E00007D0096819B19A68FFF7CBFF01E0FFF72C
:1039F000A0FF204610BD10B50446002303604360BD
:103A000083600373FFF7E8FF204610BD08B58268A6
:103A10000B4612B919B9012008BD11B9036818780D
:103A200002E0006801F0D2FFB0FA80F0400908BD62
:103A300070B50E469AB191B185689D4202D80023B7
:103A40000B7070BD541EED1AAC4228BF2C460168A5
:103A500022461944304602F003F80023335570BD66
:103A600010B50446006818B1FEF7E8FF0023236094
:103A700010BD38B5B1F904300D4683800B4653F8BC
:103A8000062F0446C0F806209B884381FFF7E8FF15
:103A90002B6813B1236000232B60204638BDB1F999
:103AA000043010B50BB90A689AB10C685CB1A288F1
:103AB000012A03D0042A06D1022205E0A4898A71D2
:103AC0000B814C8105E004220B814FF6FF738A7154
:103AD0004B8151F8063F03608B88838010BD000046
:103AE00038B50C460546FFF7BBFF44B12088FEF70A
:103AF0009DFF286028B12288214601F011FF002097
:103B000038BD014838BD00BFFCFEFFFF0146002262
:103B10008C20FEF7D9BC0020FFF7F8BFF0B5304D80
:103B20000B7D04468BB00846AF1D13B30B681B79A1
:103B3000FBB14FF6FF73002202A904300292ADF8E8
:103B40000C208DF80E20ADF81020ADF81230FEF7E5
:103B5000B3FE0AAB53F81A2D00B29B88ADF80C00E7
:103B6000A880C5F806200299BB802846FFF7B8FF59
:103B70001CE0202302931B4B002600931A49334676
:103B8000322002AA0396FEF71FFE4FF6FF73ADF830
:103B900012304FF6F26302A9114802968DF80E60BA
:103BA000ADF81060ADF80C30FFF763FF02A8FFF727
:103BB00057FF00232360A380A37123814FF6FF7377
:103BC0006381B5F904302968A3803B682046C4F8B6
:103BD0000630BB886381FFF783FF20460BB0F0BD42
:103BE0009C030020436B08083C6B080830B5044672
:103BF00085B0084611461A460023FEF717FE00233B
:103C00000193ADF808308DF80A304FF6FF73094D77
:103C100001A9ADF80C002846ADF80E30FFF729FFDA
:103C200001A8FFF71DFF20462946FFF738FF204671
:103C300005B030BD9C0300204FF6FF7310B5084C53
:103C400000202060A080A07120816381FEF7DEFD4E
:103C50002046BDE81040034A034900F073BC00BF92
:103C60009C0300203401002031020808F0B5144BF9
:103C7000144F1E68144B064418683B6806449E4265
:103C80008BB01BD00AA840F8286D01F051FD044606
:103C9000436901AD03F26C7343610FCC0FC50FCCC8
:103CA0000FC5D4F800E0094CC5F800E001AD0FCD18
:103CB0000FC40FCD0FC43E60C4F800E00BB0F0BDE0
:103CC000D8030020D4030020D0030020A803002044
:103CD00008B50020FEF74AFE28B1FEF71FFE80F06F
:103CE0000100C0B208BD012008BD000008B5FFF703
:103CF000BDFF014B986808BDA803002008B5FFF779
:103D0000B5FF014BD86808BDA803002008B5FFF730
:103D1000ADFF024B9869013008BD00BFA803002029
:103D200008B5FFF7A3FF024B1869013008BD00BFBB
:103D3000A803002008B5FEF7F7FB034B1B681844E7
:103D4000024B1B68184408BDD8030020D003002094
:103D500010B50949044601F04FFC60B907492046F7
:103D600001F068FC38B90649204601F0A7FA01F0D5
:103D70006BFC044B186010BD000040C100006041A6
:103D800000006145D803002010B50021044601F071
:103D900033FC68B94FF08041204601F04BFC38B944
:103DA0000449204601F08AFA01F04EFC024B1860EB
:103DB00010BD00BF0000614578000020024B1A686A
:103DC000024B1A60704700BF78000020D00300202B
:103DD000014B00221A607047D003002037B50E4B0C
:103DE00004461B6802A819440C4B1B68194440F890
:103DF000041D01F09DFC01F04DFC054601F013FE91
:103E00000023284400F8013C29462046FFF7D1FD55
:103E1000204603B030BD00BFD8030020D0030020EF
:103E200010B50020FEF788FB044668B9FEF7E6FCF3
:103E300001280BD12046FEF719FD38B9FFF748FFDE
:103E400030B9FEF753FDF9E7012010BD002010BD89
:103E5000FFF73EFF0020FEF76FFB003018BF012088
:103E600010BD08B5FFF7DCFFBDE80840FEF75CBBFE
:103E700008B5FFF7F6FFFFF7F9FE014B986808BD9C
:103E8000A803002008B5FFF7ECFFFFF7EFFE014B9A
:103E9000586808BDA803002008B5FFF7E2FFFFF748
:103EA000E5FE014BD86808BDA803002008B5FFF760
:103EB000D8FFBDE80840FFF729BF08B5FFF7D1FFDD
:103EC000BDE80840FFF72CBF024B1A68024B1A608E
:103ED000704700BF7C000020CC0300207047417475
:103EE000704708B5007CFEF72FFC20EAE07008BDA3
:103EF00008B5007CFEF700FC20EAE07008BD08B5BC
:103F0000007CFEF709FC30EA200028BF4FF0FF30AC
:103F100008BD08B5007CFEF7F7FB30EA200028BF9B
:103F20004FF0FF3008BD007CFEF7FEBB10B5044625
:103F3000142100F00CFB204610BD70B5457C0446F2
:103F40000E4625B9007CFEF7FFFB002805DD314653
:103F5000207CBDE87040FEF7C7BB284670BD00005E
:103F600010B5044608461146002262604FF47A728A
:103F7000A260054A20742260012262741A46FEF78C
:103F8000ABFB204610BD00BF9C6B0808007CFEF711
:103F9000D3BB000038B50C4D296811F0010411D1D4
:103FA0002846FCF78BF868B1084A2146084B0948B7
:103FB000FFF7D6FF2846FCF786F8074A0749054869
:103FC00000F0C0FA034838BD7404002078040020D3
:103FD000F0030020DC03002034010020DD3E08084F
:103FE00041747047704708B50021007CFEF7CCFB98
:103FF00030EA200028BF4FF0FF3008BD08B501218E
:10400000007CFEF7C1FB30EA200028BF4FF0FF30F4
:1040100008BD08B5007CFEF7AFFB20EAE07008BDE4
:1040200008B5007CFEF7A0FB20EAE07008BD007C2C
:10403000FEF7BABB10B50446142100F088FA2046FA
:1040400010BD38B50446007C0D46FEF795FB0028F0
:1040500001DC607C28B12946207CFEF79DFB20EA2C
:10406000E07038BD10B50446002363604FF47A73E6
:10407000A360054B08462360012321746374114635
:10408000FEF76AFB204610BDCC6B080810B504464D
:104090001422002101F06AFC054B20466360054BA9
:1040A000E36040F2011323818123238210BD00BF0E
:1040B000810500200005002030B50E4D87B001A815
:1040C000FFF7E4FF296811F0010410D12846FBF73F
:1040D000F5FF60B101AA21460748FFF7C3FF284654
:1040E000FBF7F1FF054A0649034800F02BFA0248A6
:1040F00007B030BDFC0400208406002034010020FD
:10410000E53F080810B504461422002101F02EFCFA
:10411000054B20466360054BE36040F201132381A9
:104120008123238210BD00BF340700209C0600209D
:1041300010B50E4C86B001A8FFF7E4FF2368DB073B
:1041400010D42046FBF7BAFF60B101AA012108484C
:10415000FFF788FF2046FBF7B6FF064A06490448EA
:1041600000F0F0F9024806B010BD00BF980600202C
:104170002007002034010020E53F080808B5184B4F
:1041800033B1FFF799FF03681B69984700281EDCCD
:10419000144B33B1FFF7FEFE03681B6998470028F4
:1041A00018DC114B0BB1AFF30080104B0BB1AFF328
:1041B00000800F4B0BB1AFF300800E4B7BB1FFF7CC
:1041C000B7FF03681B699847002806DC08BDAFF3FA
:1041D0000080DDE7AFF30080E3E7AFF3008008BDC8
:1041E00000000000000000000000000000000000CF
:1041F000000000000000000008B5FFF7BFFFFEF759
:104200008BF9014B186008BD500800200248034A92
:104210000349121A01F084BB0040024004480240E6
:10422000906E080807B5002300931A466FF07701D7
:10423000FEF72EFB03B05DF804FB000007B54388D2
:104240000A2B08D0502B09D1094B1B683BB103B096
:104250005DF804EB1847FFF7E5FF06E00023009345
:104260001A466FF07701FEF713FB03B05DF804FB0D
:104270003808002038B5104C104D2368AB42104B65
:104280000CBF012200221A7002D0FFF7BFFF256089
:10429000FEF72AF9044601F071FB0A4B13B12046E0
:1042A000AFF3008000210748FEF768FBBDE8384007
:1042B00000210548FEF7E2BA004802401E1C279A7A
:1042C0003C080020000000003D42080808B5024BF1
:1042D0001B681B68019308BD9C01020808B5024BCE
:1042E0001B685B68019308BD9C01020808B5024B7E
:1042F0001B689B68019308BD9C01020810B5044629
:10430000806808B1FEF7C8F8204610BD70B51A4E97
:104310000446316811F001050FD13046FBF7CEFE9F
:1043200058B129461548FFF7EBFA3046FBF7CBFEAC
:10433000134A1449114800F005F91048FFF7EFFA45
:1043400028B1A4F10D03022B01D8002070BD00F0AC
:1043500095F8FFF7AAF808B1012CF6D9FFF71AFE75
:10436000FFF714FE18B1A4F11203012BEDD92E2C86
:104370008CBF0020012070BD4008002044080020B0
:1043800034010020FD4208082E2838B504460D46A9
:104390000AD8FF2908D0FFF7B9FF28B129462046DF
:1043A000BDE83840FEF7E8B838BD38B504460D46DC
:1043B000FEF7EAF8FF2810D0062804D84D2323FA88
:1043C00000F0C30709D42046FFF7A0FF28B1294613
:1043D0002046BDE83840FEF7DFB838BD10B50446CA
:1043E000FEF7D2F80438C0B2012808D92046FFF7FA
:1043F0008DFF20B12046BDE81040FEF7D5B8002063
:1044000010BD10B5044609289CBF0A34A4B220464A
:10441000FFF77CFF50B103212046FEF7A5F80328E3
:1044200004D12046BDE81040FEF7D6B8002010BDEC
:1044300070B5044614252A46094E002101F096FA6B
:10444000258020253146A5602561284600F099F891
:1044500031466060284600F094F8E060204670BD68
:10446000F46B080810B50446FFF7E2FF204610BDC4
:1044700010B50446FFF7DCFF204610BD30B50E4DE9
:1044800087B0296811F0010413D12846FBF716FE06
:1044900078B101A8FFF7E6FF01AA21460748FEF719
:1044A000B3FF2846FBF70FFE054A0649034800F014
:1044B00049F8024807B030BD540800206C080020BD
:1044C00034010020B133080810B50E4C86B02368C3
:1044D000DB0713D42046FBF7F1FD78B101A8FFF705
:1044E000C7FF01AA02210848FEF78EFF2046FBF70E
:1044F000EAFD064A0649044800F024F8024806B0DE
:1045000010BD00BF800800205808002034010020A2
:10451000B133080813B5084C00231A461946009316
:104520002046FFF75FF82046044A054902B0BDE87F
:10453000104000F007B800BF8408002034010020BC
:104540005D3508080B460146184601F0E3B8FBF755
:10455000A8BD0000024B1868BFF35F8F704700BF13
:104560008C08002010B5002814BF04460124204602
:10457000FEF75CFA20B9FFF7EDFF08B18047F6E7D8
:1045800010BDFFF7EFBF08B5FEF780FA244B1A689D
:10459000D0075CBF01221A60224B1A68D1075CBFAA
:1045A00001221A60204B1A68D2075CBF01221A60F0
:1045B0001E4B1A68D0075CBF01221A601C4B1A6898
:1045C000D1075CBF01221A601A4B1A68D2075CBF80
:1045D00001221A60184B1A68D0075CBF01221A60CA
:1045E000164B1A68D1075CBF01221A60144B1A6877
:1045F000D2075CBF01221A60124B1A68D0075CBF59
:1046000001221A60104B1A68D1075CBF01221A60A0
:104610000E4B1A68D2075CBF01221A60704700BFB8
:10462000BC080020B8080020B4080020B008002012
:10463000AC080020A8080020A4080020A008002042
:104640009C08002098080020940800209008002072
:10465000184B1A68D1075CBF01221A60164B1A6802
:10466000D2075CBF01221A60144B1A68D0075CBFE6
:1046700001221A60124B1A68D1075CBF01221A602E
:10468000104B1A68D2075CBF01221A600E4B1A68E1
:10469000D0075CBF01221A600C4B1A68D1075CBFBF
:1046A00001221A600A4B1A68D2075CBF01221A6005
:1046B000704700BFDC080020D8080020D408002084
:1046C000D0080020CC080020C8080020C408002022
:1046D000C0080020184B1A68D1075CBF01221A607D
:1046E000164B1A68D2075CBF01221A60144B1A6875
:1046F000D0075CBF01221A60124B1A68D1075CBF59
:1047000001221A60104B1A68D2075CBF01221A609E
:104710000E4B1A68D0075CBF01221A600C4B1A6856
:10472000D1075CBF01221A600A4B1A68D2075CBF2E
:1047300001221A60704700BFFC080020F808002022
:10474000F4080020F0080020EC080020E808002011
:10475000E4080020E0080020244B1A68D0075CBF62
:1047600001221A60224B1A68D1075CBF01221A602D
:10477000204B1A68D2075CBF01221A601E4B1A68D0
:10478000D0075CBF01221A601C4B1A68D1075CBFBE
:1047900001221A601A4B1A68D2075CBF01221A6004
:1047A000184B1A68D0075CBF01221A60164B1A68B2
:1047B000D1075CBF01221A60144B1A68D2075CBF94
:1047C00001221A60124B1A68D0075CBF01221A60DE
:1047D000104B1A68D1075CBF01221A600E4B1A6891
:1047E000D2075CBF01221A60704700BF2C0900206D
:1047F0002809002024090020200900201C0900208D
:104800001809002014090020100900200C090020BC
:1048100008090020040900200009002081F000415F
:1048200002E000BF83F0004330B54FEA41044FEA95
:10483000430594EA050F08BF90EA020F1FBF54EA30
:10484000000C55EA020C7FEA645C7FEA655C00F0CC
:10485000E2804FEA5454D4EB5555B8BF6D420CDD9D
:104860002C4480EA020281EA030382EA000083EA20
:10487000010180EA020281EA0303362D88BF30BDC0
:1048800011F0004F4FEA01314FF4801C4CEA113116
:1048900002D0404261EB410113F0004F4FEA033375
:1048A0004CEA133302D0524263EB430394EA050F00
:1048B00000F0A780A4F10104D5F1200E0DDB02FA6F
:1048C0000EFC22FA05F2801841F1000103FA0EF203
:1048D000801843FA05F359410EE0A5F120050EF1C9
:1048E000200E012A03FA0EFC28BF4CF0020C43FAFA
:1048F00005F3C01851EBE37101F0004507D54FF007
:10490000000EDCF1000C7EEB00006EEB0101B1F556
:10491000801F1BD3B1F5001F0CD349085FEA30009C
:104920004FEA3C0C04F101044FEA445212F5800FA7
:1049300080F09A80BCF1004F08BF5FEA500C50F144
:10494000000041EB045141EA050130BD5FEA4C0C27
:10495000404141EB010111F4801FA4F10104E9D1B0
:1049600091F0000F04BF01460020B1FA81F308BFA7
:104970002033A3F10B03B3F120020CDA0C3208DD73
:1049800002F1140CC2F10C0201FA0CF021FA02F14E
:104990000CE002F11402D8BFC2F1200C01FA02F1BE
:1049A00020FA0CFCDCBF41EA0C019040E41AA2BFE3
:1049B00001EB0451294330BD6FEA04041F3C1CDAAB
:1049C0000C340EDC04F11404C4F1200220FA04F0CB
:1049D00001FA02F340EA030021FA04F345EA030175
:1049E00030BDC4F10C04C4F1200220FA02F001FA37
:1049F00004F340EA0300294630BD21FA04F02946B9
:104A000030BD94F0000F83F4801306BF81F4801151
:104A10000134013D4EE77FEA645C18BF7FEA655CC4
:104A200029D094EA050F08BF90EA020F05D054EA96
:104A3000000C04BF1946104630BD91EA030F1EBF9B
:104A40000021002030BD5FEA545C05D1400049419F
:104A500028BF41F0004130BD14F580043CBF01F592
:104A6000801130BD01F0004545F0FE4141F4700178
:104A70004FF0000030BD7FEA645C1ABF1946104653
:104A80007FEA655C1CBF0B46024650EA013406BF54
:104A900052EA033591EA030F41F4002130BD00BF13
:104AA00090F0000F04BF0021704730B54FF48064D0
:104AB00004F132044FF000054FF0000150E700BF51
:104AC00090F0000F04BF0021704730B54FF48064B0
:104AD00004F1320410F0004548BF40424FF000019D
:104AE0003EE700BF42004FEAE2014FEA31014FEAE0
:104AF00002701FBF12F07F4393F07F4F81F060512F
:104B0000704792F0000F14BF93F07F4F704730B59D
:104B10004FF4607401F0004521F0004120E700BF30
:104B200050EA010208BF704730B54FF000050AE0B7
:104B300050EA010208BF704730B511F0004502D5B8
:104B4000404261EB41014FF4806404F132045FEABA
:104B5000915C3FF4DCAE4FF003025FEADC0C18BF5F
:104B600003325FEADC0C18BF033202EBDC02C2F155
:104B7000200300FA03FC20FA02F001FA03FE40EAE7
:104B80000E0021FA02F11444C1E600BF70B54FF0E7
:104B9000FF0C4CF4E06C1CEA11541DBF1CEA1355C9
:104BA00094EA0C0F95EA0C0F00F0DEF82C4481EA31
:104BB000030621EA4C5123EA4C5350EA013518BF51
:104BC00052EA033541F4801143F4801338D0A0FB3E
:104BD00002CE4FF00005E1FB02E506F00042E0FBEB
:104BE00003E54FF00006E1FB03569CF0000F18BFF1
:104BF0004EF0010EA4F1FF04B6F5007F64F5407499
:104C000004D25FEA4E0E6D4146EB060642EAC6212B
:104C100041EA55514FEAC52040EA5E504FEACE2E98
:104C2000B4F1FD0C88BFBCF5E06F1ED8BEF1004F9B
:104C300008BF5FEA500E50F1000041EB045170BD17
:104C400006F0004646EA010140EA020081EA03015B
:104C5000B4EB5C04C2BFD4EB0C0541EA045170BD57
:104C600041F480114FF0000E013C00F3AB8014F1D1
:104C7000360FDEBF002001F0004170BDC4F100041A
:104C8000203C35DA0C341BDC04F11404C4F120059B
:104C900000FA05F320FA04F001FA05F240EA0200F6
:104CA00001F0004221F0004110EBD37021FA04F62C
:104CB00042EB06015EEA430E08BF20EAD37070BDE6
:104CC000C4F10C04C4F1200500FA04F320FA05F045
:104CD00001FA04F240EA020001F0004110EBD37047
:104CE00041F100015EEA430E08BF20EAD37070BDB7
:104CF000C4F1200500FA05F24EEA020E20FA04F390
:104D000001FA05F243EA020321FA04F001F000413E
:104D100021FA04F220EA020000EBD3705EEA430EAF
:104D200008BF20EAD37070BD94F0000F0FD101F0DE
:104D30000046400041EB010111F4801F08BF013C17
:104D4000F7D041EA060195F0000F18BF704703F055
:104D50000046520043EB030313F4801F08BF013DDC
:104D6000F7D043EA0603704794EA0C0F0CEA135598
:104D700018BF95EA0C0F0CD050EA410618BF52EA52
:104D80004306D1D181EA030101F000414FF0000058
:104D900070BD50EA410606BF1046194652EA430666
:104DA00019D094EA0C0F02D150EA013613D195EADA
:104DB0000C0F05D152EA03361CBF104619460AD122
:104DC00081EA030101F0004141F0FE4141F470012C
:104DD0004FF0000070BD41F0FE4141F4780170BD1C
:104DE00070B54FF0FF0C4CF4E06C1CEA11541DBF81
:104DF0001CEA135594EA0C0F95EA0C0F00F0A7F883
:104E0000A4EB050481EA030E52EA03354FEA0131AF
:104E100000F088804FEA03334FF0805545EA1313C2
:104E200043EA12634FEA022245EA111545EA10658A
:104E30004FEA00260EF000419D4208BF964244F121
:104E4000FD0404F5407402D25B084FEA3202B61A40
:104E500065EB03055B084FEA32024FF480104FF414
:104E6000002CB6EB020E75EB030E22BFB61A754688
:104E700040EA0C005B084FEA3202B6EB020E75EB1B
:104E8000030E22BFB61A754640EA5C005B084FEA83
:104E90003202B6EB020E75EB030E22BFB61A754650
:104EA00040EA9C005B084FEA3202B6EB020E75EB5B
:104EB000030E22BFB61A754640EADC0055EA060E1C
:104EC00018D04FEA051545EA16754FEA06164FEA5F
:104ED000C30343EA52734FEAC2025FEA1C1CC0D10B
:104EE00011F4801F0BD141EA00014FF000004FF098
:104EF000004CB6E711F4801F04BF01430020B4F159
:104F0000FD0C88BFBCF5E06F3FF6AFAEB5EB030C10
:104F100004BFB6EB020C5FEA500C50F1000041EB0D
:104F2000045170BD0EF0004E4EEA113114EB5C04DA
:104F3000C2BFD4EB0C0541EA045170BD41F48011AD
:104F40004FF0000E013C90E645EA060E8DE60CEAB5
:104F5000135594EA0C0F08BF95EA0C0F3FF43BAFD2
:104F600094EA0C0F0AD150EA01347FF434AF95EA89
:104F70000C0F7FF425AF104619462CE795EA0C0F6D
:104F800006D152EA03353FF4FDAE1046194622E73A
:104F900050EA410618BF52EA43067FF4C5AE50EA14
:104FA00041047FF40DAF52EA43057FF4EBAE12E704
:104FB0004FEA410212F5001215D211D56FF4787341
:104FC000B3EB625212D94FEAC12343F0004343EAE4
:104FD000505311F0004F23FA02F018BF40427047BF
:104FE0004FF00000704750EA013005D111F0004049
:104FF00008BF6FF0004070474FF00000704700BFDF
:105000004FEA4102B2F1E04324BFB3F5001CDCF1EA
:10501000FE5C0DD901F0004C4FEAC0024CEA507022
:10502000B2F1004F40EB830008BF20F00100704751
:1050300011F0804F21D113F13872BCBF01F0004054
:10504000704741F480114FEA5252C2F11802C2F186
:10505000200C10FA0CF320FA02F018BF40F0010007
:105060004FEAC1234FEAD32303FA0CFC40EA0C00B9
:1050700023FA02F34FEA4303CCE77FEA625307D1F6
:1050800050EA01331EBF4FF0FE4040F4400070472D
:1050900001F0004040F0FE4040F40000704700BFC7
:1050A00080F0004002E000BF81F0004142001FBFDD
:1050B0005FEA410392EA030F7FEA226C7FEA236CE6
:1050C0006AD04FEA1262D2EB1363C1BFD2184140DB
:1050D00048404140B8BF5B42192B88BF704710F071
:1050E000004F40F4000020F07F4018BF404211F014
:1050F000004F41F4000121F07F4118BF494292EA7C
:10510000030F3FD0A2F1010241FA03FC10EB0C00A7
:10511000C3F1200301FA03F100F0004302D5494234
:1051200060EB4000B0F5000F13D3B0F1807F06D3E1
:1051300040084FEA310102F10102FE2A51D2B1F1D9
:10514000004F40EBC25008BF20F0010040EA0300CE
:105150007047490040EB000010F4000FA2F101027B
:10516000EDD1B0FA80FCACF1080CB2EB0C0200FA05
:105170000CF0AABF00EBC25052421843BCBFD04053
:105180001843704792F0000F81F4000106BF80F4CD
:1051900000000132013BB5E74FEA41037FEA226C90
:1051A00018BF7FEA236C21D092EA030F04D092F05B
:1051B000000F08BF0846704790EA010F1CBF00208F
:1051C000704712F07F4F04D1400028BF40F00040EC
:1051D000704712F100723CBF00F50000704700F00C
:1051E000004343F0FE4040F4000070477FEA226233
:1051F00016BF08467FEA23630146420206BF5FEA04
:10520000412390EA010F40F4800070474FF0000303
:1052100004E000BF10F0004348BF40425FEA000CCA
:1052200008BF704743F0964301464FF000001CE072
:1052300050EA010208BF70474FF000030AE000BFC8
:1052400050EA010208BF704711F0004302D5404206
:1052500061EB41015FEA010C02BF84460146002078
:1052600043F0B64308BFA3F18053A3F50003BCFA93
:105270008CF2083AA3EBC25310DB01FA02FC634440
:1052800000FA02FCC2F12002BCF1004F20FA02F247
:1052900043EB020008BF20F00100704702F120023A
:1052A00001FA02FCC2F1200250EA4C0021FA02F29B
:1052B00043EB020008BF20EADC7070474FF0FF0CA0
:1052C0001CEAD0521EBF1CEAD15392EA0C0F93EA9B
:1052D0000C0F6FD01A4480EA010C400218BF5FEA3D
:1052E00041211ED04FF0006343EA501043EA5111B0
:1052F000A0FB01310CF00040B1F5000F3EBF4900AA
:1053000041EAD3715B0040EA010062F17F02FD2AAD
:105310001DD8B3F1004F40EBC25008BF20F0010090
:10532000704790F0000F0CF0004C08BF49024CEAA7
:10533000502040EA51207F3AC2BFD2F1FF0340EA39
:10534000C250704740F400004FF00003013A5DDCAA
:1053500012F1190FDCBF00F000407047C2F10002EB
:10536000410021FA02F1C2F1200200FA02FC5FEAD8
:10537000310040F1000053EA4C0308BF20EADC7022
:10538000704792F0000F00F0004C02BF400010F494
:10539000000F013AF9D040EA0C0093F0000F01F041
:1053A000004C02BF490011F4000F013BF9D041EA63
:1053B0000C018FE70CEAD15392EA0C0F18BF93EA65
:1053C0000C0F0AD030F0004C18BF31F0004CD8D18F
:1053D00080EA010000F00040704790F0000F17BF16
:1053E00090F0004F084691F0000F91F0004F14D05C
:1053F00092EA0C0F01D142020FD193EA0C0F03D1B4
:105400004B0218BF084608D180EA010000F00040B6
:1054100040F0FE4040F40000704740F0FE4040F491
:10542000400070474FF0FF0C1CEAD0521EBF1CEA30
:10543000D15392EA0C0F93EA0C0F69D0A2EB03024E
:1054400080EA010C49024FEA402037D04FF08053E8
:1054500043EA111143EA10130CF000408B4238BFAD
:105460005B0042F17D024FF4000C8B4224BF5B1ABB
:1054700040EA0C00B3EB510F24BFA3EB510340EA09
:105480005C00B3EB910F24BFA3EB910340EA9C00B7
:10549000B3EBD10F24BFA3EBD10340EADC001B0127
:1054A00018BF5FEA1C1CE0D1FD2A3FF650AF8B42CB
:1054B00040EBC25008BF20F0010070470CF0004CD8
:1054C0004CEA50207F32C2BFD2F1FF0340EAC25003
:1054D000704740F400004FF00003013A37E792F0C4
:1054E000000F00F0004C02BF400010F4000F013A22
:1054F000F9D040EA0C0093F0000F01F0004C02BF1D
:10550000490011F4000F013BF9D041EA0C0195E785
:105510000CEAD15392EA0C0F08D142027FF47DAF1E
:1055200093EA0C0F7FF470AF084676E793EA0C0F0E
:1055300004D14B023FF44CAF08466EE730F0004C0C
:1055400018BF31F0004CCAD130F000427FF45CAF9C
:1055500031F000437FF43CAF5FE700BF4FF0FF3C0A
:1055600006E000BF4FF0010C02E000BF4FF0010C5D
:105570004DF804CD4FEA40024FEA41037FEA226C26
:1055800018BF7FEA236C11D001B052EA530C18BF48
:1055900090EA010F58BFB2EB030088BFC81738BFAD
:1055A0006FEAE17018BF40F0010070477FEA226C9B
:1055B00002D15FEA402C05D17FEA236CE4D15FEA97
:1055C000412CE1D05DF8040B704700BF84460846CB
:1055D0006146FFE70FB5FFF7C9FF002848BF10F18C
:1055E000000F0FBD4DF808EDFFF7F4FF0CBF0120D1
:1055F00000205DF808FB00BF4DF808EDFFF7EAFF5B
:1056000034BF012000205DF808FB00BF4DF808ED15
:10561000FFF7E0FF94BF012000205DF808FB00BF0A
:105620004DF808EDFFF7D2FF94BF012000205DF890
:1056300008FB00BF4DF808EDFFF7C8FF34BF01209D
:1056400000205DF808FB00BF4FEA4002B2F1FE4FB8
:105650000FD34FF09E03B3EB12620DD94FEA002334
:1056600043F0004310F0004F23FA02F018BF40420D
:1056700070474FF00000704712F1610F01D14202F4
:1056800005D110F0004008BF6FF0004070474FF0A8
:1056900000007047094B70B51C680646256C3DB983
:1056A0001A20FDF7C3F91A222064294600F05EF99A
:1056B000216C3046BDE8704000F002B8E4000020E4
:1056C00010B50C46416986B001F26C7103698269BC
:1056D0000491016803EB43030391416802EB42022A
:1056E000029181680191C1682046009104490B44F0
:1056F00004490A440449FDF7B1F9204606B010BD3B
:105700000A6C0808F56B08082E6C08080A220021AC
:1057100000F040BA10B5054C13462CB10A460146BC
:105720000220AFF3008010BD204610BD0000000035
:1057300038B5074B05461C68E36B1BB92420FDF701
:1057400075F9E063E16B2846BDE8384000F002B827
:10575000E40000202DE9F0410C46804600F020FDD9
:1057600021460746404600F01FFD4669044606F202
:105770006C76B30705D1642296FBF2F302FB136348
:105780004BB94FF4C87596FBF5F305FB1365B5FAF5
:1057900085F35B0900E001235F4A302505FB032503
:1057A00000F032FB00F032FB5C4B1B68F3B17B680E
:1057B0009E4205D13968D8F80030FA6941B90AE04B
:1057C000304600F079FA0028F4D14FF0FF330DE0B5
:1057D000934208DB01E0934207DABA6B9342ACBF15
:1057E0000023012302E0002300E001232362236A57
:1057F0003C20012B0CBFF96B396A4FF4616391FBBC
:10580000F3F603FB161393FBF0F200FB1230616812
:105810002368891AA2681B1A921B3B2B23606160C4
:10582000A26003DD013161603C3B04E0002B03DA40
:10583000013961603C33236063683B2B03DD013237
:10584000A2603C3B04E0002B03DA013AA2603C3347
:105850006360A368172B22DDE269183B0132E26125
:10586000A269A3600132062AC8BF0022A261E268D1
:1058700023690132E26055F823108A4246DD013384
:105880000C2B08BF6369A2EB0102E26005BF013384
:1058900000222361226104BF6361E26136E0002BD4
:1058A00034DAE2691833013AE261A269A360013A8D
:1058B00048BF0622A261E268013AE26032BB236976
:1058C000013B01D423611DE00B23236163695A1E50
:1058D00012F0030F626103F26B7305D1642193FB35
:1058E000F1F201FB12324AB94FF4C87193FBF1F2A5
:1058F00001FB1233B3FA83F35B0900E0012303F5E4
:10590000B673E361236955F82330E36000F07DFA54
:105910002046BDE8F08100BFB06D08084C090020AA
:1059200010B5431E0A44914204D011F8014B03F80C
:10593000014FF8E710BD884210B501EB020301D812
:10594000421E0BE09842FBD28118D21AD34204D0F7
:1059500013F8014D01F8014DF8E710BD994204D04C
:1059600011F8014B02F8014FF8E710BD034602445D
:10597000934202D003F8011BFAE7704738B5124B87
:1059800005461C68A36BD3B91820FDF74FF843F206
:105990000E33A06303804AF6CD33438041F23423B3
:1059A00083804EF26D63C3804DF6EC630381052363
:1059B00043810B23838101220023C0E90423A36BCD
:1059C00000221D615A6138BDE400002010F8012B4F
:1059D00011F8013B012A28BF9A42F7D0D01A70472C
:1059E000034611F8012B03F8012B002AF9D1704767
:1059F000024B0146186800F003B800BFE400002025
:105A000070B5064608460C4600F00DF8451C2946C0
:105A10003046FDF743F8064618B12A462146FFF7FF
:105A20007FFF304670BD034613F8012B002AFBD1DF
:105A3000181A0138704730B582B1451E013915F882
:105A4000013F11F8014FA34206D1EC431444E04258
:105A500001D0002BF3D11C46181B30BD104630BDC1
:105A6000034610B542B111F8014B013A03F8014B5E
:105A7000002CF7D11A4400E010BD934202D003F885
:105A8000014BFAE710BD00002DE9F0470F468046B4
:105A90003F48D0F800903D4615F8014B09EB040053
:105AA000407800F0080000F0FF0608B12F46F2E74A
:105AB0002D2C03D1BD1C7C78012603E02B2C04BFC8
:105AC0007C78BD1C13B1102B0AD15BE0302C57D170
:105AD000287800F0DF0058284DD16C78102302356B
